:020000040800F2
:1000000028050020C10100088B1200087F1100089C
:1000100089120008CD0200086917000800000000DE
:10002000000000000000000000000000B112000805
:100030005903000800000000AD120008B3120008C8
:10004000DB010008DB010008DB010008DB01000820
:10005000DB010008AF120008DB010008DB0100082B
:10006000DB010008DB010008DB010008DB01000800
:10007000DB010008DB010008DB010008DB010008F0
:10008000DB010008D1020008DB010008DB010008E9
:10009000DB010008DB010008DB010008DB010008D0
:1000A000DB010008DB010008DB010008DB010008C0
:1000B000DB010008DB010008DB010008DB010008B0
:1000C000DB010008DB010008DB010008DB010008A0
:1000D000DB010008DB0100085D170008DB010008F8
:1000E000DB010008DB010008DB010008DB01000880
:1000F000DB010008DB010008DB010008DB01000870
:10010000DB010008DB010008DB010008DB0100085F
:10011000DB010008DB010008DB010008DB0100084F
:10012000DB010008DB010008DB010008DB0100083F
:10013000DB010008DB010008DB010008DB0100082F
:10014000DB010008DB010008DB010008DB0100081F
:10015000DB010008DB010008DB010008DB0100080F
:10016000DB010008DB010008DB010008DB010008FF
:10017000DB010008DB010008DB01000800000000D3
:10018000DB010008DB010008DB010008DB010008DF
:10019000DB010008DB010008DB010008DB010008CF
:1001A0000000000000000000DB010008DFF80CD0B8
:1001B00000F07AF800480047A5170008280500203D
:1001C0000648804706480047FEE7FEE7FEE7FEE7F1
:1001D000FEE7FEE7FEE7FEE7FEE7FEE74113000865
:1001E000AD0100082DE9F05F0546002092469B46D0
:1001F00088460646814640241BE02846414647463D
:10020000224600F041F853465A46C01A914110D395
:1002100011461846224600F028F82D1A67EB01080F
:100220004F4622460120002100F01FF817EB00097D
:100230004E41201EA4F10104DFDC484631462A4627
:100240004346BDE8F09FD2B201E000F8012B491E01
:10025000FBD270470022F6E710B513460A46044663
:100260001946FFF7F0FF204610BD202A04DB203A94
:1002700000FA02F1002070479140C2F1200320FAF9
:1002800003F3194390407047202A04DB203A21FAF7
:1002900002F00021704721FA02F3D040C2F120029F
:1002A0009140084319467047064C074D06E0E06848
:1002B00040F0010394E8070098471034AC42F6D3AD
:1002C000FFF778FF5C1800087C180008FEE70000C4
:1002D000014800F055B80000C8000020016818234C
:1002E000CAB2103AB2FBF3F2054B6FF30901032ACD
:1002F0009B5CC36500D9091D8165084670470000F5
:100300003C18000810B5014600208B698A6A4FF03E
:10031000C07453B1B3F5005F15D072B1012A0CD08F
:10032000022A0AD0032A09D104E01AB1012A06D010
:10033000022A03D1C96AC90100D5012010BDC96ACA
:10034000A142FAD010BD002AF7D0012AF2D0022A29
:10035000F3D0032AF3D010BD7047704790F83510E2
:10036000022903D08021416501207047052180F8D2
:1003700035100068016821F001010160002070471C
:100380002DE9F84304464FF00009CDF8009063488A
:100390004FF41651A56D0068B0FBF1F72E6894F884
:1003A0005C10082000FA01F131420FD021680A6880
:1003B00052070BD50A6822F004020A6094F85C1018
:1003C0008840A860606D40F00100606594F85C10A2
:1003D0004FF0010808FA01F0304208D0216849695D
:1003E000090604D5A860606D40F00200606594F8CD
:1003F0005C1004208840304208D0216809688907D1
:1004000004D5A860606D40F00400606594F85C104D
:1004100010208840304218D021680968090714D597
:10042000A86020680168490304D50068000308D566
:10043000A16C07E00168C90503D4016821F0080137
:100440000160216C09B12046884794F85C10202097
:100450008840304231D021680968C9062DD5A8608E
:1004600094F8350005282068016806D0490347D56F
:10047000006800031DD4616C1CE021F016010160CE
:100480002068416921F080014161206C08B9A06CAD
:1004900020B12068016821F00801016094F85C1027
:1004A0003F208840A86084F8349084F83580216D1E
:1004B0001FE0E16B09B120468847606D00282BD012
:1004C000606DC00714D0052084F8350020680168ED
:1004D00021F0010101600098401C0090B84203D84F
:1004E00020680068C007F6D184F8349084F835801D
:1004F000E16C002910D001B02046BDE8F043084768
:100500000168C905D5D4016821F01001016084F8A3
:10051000349084F83580CCE7BDE8F8830C000020E7
:100520002DE9F041044600F067F906465CB100256C
:1005300084F83450022084F835002068016821F0E6
:10054000010101600DE00120BDE8F08100F054F9E7
:10055000801B052805D920206065032084F835001C
:10056000F2E720680068C007F0D1226811682048CF
:100570000140D4E901031843D4E903363343184357
:1005800063691843A3691843E3691843236A18434E
:100590000843616A042903D1D4E90B1319430843C2
:1005A000106020684069666A20F0070130460E43FB
:1005B000012704280CD1A06A0643E06A40B1204616
:1005C000FFF7A0FE20B14020606584F83570BAE7DF
:1005D000206846612046FFF781FE94F85C203F21A9
:1005E00091408160656584F835700020ACE70000BB
:1005F0003F8010F070B5044600F0FEF80546601C20
:1006000002D004480078044400F0F6F8401BA042F1
:10061000FAD370BD000000202DE9F84FDFF890B14B
:1006200000224FF001084FF0030A4FF00F090BF1C1
:10063000040E00BF0B6808FA02F42340A3426ED1F7
:100640004D68022D01D0122D0ED1D50800EB850C7E
:10065000DCF820505607F70E09FA07F6B5430E6985
:10066000BE402E43CCF82060066855000F790AFA88
:1006700005FC07F0030726EA0C06AF403743076086
:100680004E68012E05D0022E03D0112E01D0122E5D
:100690000ED18768CE6827EA0C07AE403E438660DD
:1006A0004668A6430C79C4F3001494403443446074
:1006B000C4688E6824EA0C04AE402643C6604C68C9
:1006C000E4006FD53B4C256845F4804525602468DF
:1006D00022F0030504F480440094374C2E19D6F818
:1006E000084895072F0F09FA07F5AC43334DA84288
:1006F00001D100252EE0324DA84201D1012529E08B
:10070000304DA84201D1022524E02F4DA84201D14D
:1007100003251FE02D4DA84202D104251AE041E037
:100720002B4DA84201D1052514E02A4DA84201D144
:1007300006250FE0284DA84201D107250AE0274DE4
:10074000A84201D1082505E0254DA84201D109257F
:1007500000E00A25BD402543C6F80858DBF80040F4
:100760005D464E689C43F60300D51C432C60DEF8C2
:10077000004075464E689C43B60300D51C432C6070
:100780000B4D08352C684E689C43F60200D51C437F
:100790002C60074D0C352C684E689C43B60200D582
:1007A0001C432C60521C102AFFF444AFBDE8F88FA4
:1007B000003C01404438024000300140000002404B
:1007C0000004024000080240000C024000100240F9
:1007D0000014024000180240001C024000200240A9
:1007E0000024024042694A40426170470AB1816177
:1007F00070470904FBE7000001488068704700006B
:10080000000000200248816802781144816070472E
:10081000000000200B4810B5016841F40071016030
:10082000016841F480610160016841F480710160F8
:10083000032000F075F8002000F006F800F024F81E
:10084000002010BD003C024070B50D4D04464FF431
:100850007A712878B1FBF0F00A490968B1FBF0F031
:1008600000F020FB48B9102C07D200222146501E70
:1008700000F036F800206C6070BD012070BD0000F3
:10088000000000200C0000200E4808B5016841F46B
:1008900080410160006800F4804000900948001F1A
:1008A000016841F0805101600068002200F0805032
:1008B00000901146052000F013F8BDE8084005201F
:1008C00000F002B84438024000F01F0201219140BC
:1008D0004009800000F1E020C0F8001170470000DE
:1008E000F0B40E4B1B680C46C3F30223C3F107059B
:1008F000042D00D90425191D072901D2002300E089
:10090000DB1E012606FA05F1491E214099409E4052
:10091000761E16403143F0BC00F0B8BC0CED00E090
:10092000064900F0070208684FF6FF03184040EA46
:100930000220034A10430860704700000CED00E0FD
:100940000000FA052DE9F8431748016841F080518D
:1009500001600068154F00F08050012600903E6451
:10096000FFF74AFF05464FF47A78114C05E000BFC7
:10097000FFF742FF401B40450DD86068C003F7D524
:100980007E64FFF739FF0546464607E0FFF734FF70
:10099000401BB04202D90320BDE8F88360688003A1
:1009A000F4D50020F8E700004038024000000E4275
:1009B000007000402DE9F0470E46050065D0DFF8D5
:1009C0001481D8F80000F7B200F00F00B04207D24F
:1009D00088F80070D8F8000000F00F00B04254D141
:1009E00028683D4C810712D5400703D5206840F4A4
:1009F000E05020602878000703D5206840F460406C
:100A000020602068A96820F0F00008432060287862
:100A1000C0072DD0304968680839012812D0022853
:100A200013D0032811D00968890700292DDA21681D
:100A300021F0030101432160FFF7DEFE814641F210
:100A4000883A0EE009688903EFE709688901ECE755
:100A5000FFF7D2FEA0EB0901514502D90320BDE802
:100A6000F0872068696800F00C00B0EB810FEFD1CF
:100A7000D8F80010404601F00F01B14207D90770C5
:100A8000006800F00F00B04201D00120E7E72878AD
:100A9000400705D52068E96820F4E050084320604D
:100AA0002878000706D52068296920F4604040EACC
:100AB000C100206000F036F82168084AC1F3031134
:100AC000515CC840064908600020FFF7BDFE0020C9
:100AD000C5E70000003C0240083802404418000806
:100AE0000C0000200448054900680968044AC1F365
:100AF0008221515CC84070470C0000200838024039
:100B0000541800080448054900680968044AC1F3FC
:100B10004231515CC84070470C0000200838024048
:100B200054180008154810B5006810F00C0214485D
:100B300013D01449042A0FD0082A0ED10F4C241FB9
:100B40002268236802F03F025B0207D52068C0F3E9
:100B50008810A0FB010106E0084610BD2168C1F322
:100B60008811A1FB00010023FFF73CFB2168C1F3C2
:100B70000141491C4900B0FBF1F010BD08380240AA
:100B80000024F400001BB7002DE9F84F050076D0D3
:100B90002878DFF8F8B2BE4CC00749D0DBF8001067
:100BA0005846C1F38101012908D00068C0F38100D3
:100BB00002280AD1201D0068400206D52068800363
:100BC00036D568680028E2D032E06868B0F5803F2A
:100BD00010D0B0F5A02F206810D020F48030206015
:100BE000206820F4802020606868A0B1FFF704FE30
:100BF00006460CE0206840F48030F4E740F48020A2
:100C00002060F7E7FFF7F8FD801B642873D82068A1
:100C10008003F7D50CE0FFF7EFFD064605E000BFC7
:100C2000FFF7EAFD801B6428F0D820688003F7D422
:100C30002878DFF8608280074FF000093ED5DBF8A6
:100C40000010584611F00C0F09D00068C0F3810065
:100C500002280BD18D48001F0068400206D420688E
:100C6000800715D5E868012809D111E0E868B8B116
:100C70000120C8F80000FFF7BFFD064605E002E1CD
:100C8000FFF7BAFD801B0228C0D820688007F7D57F
:100C90002068296920F0F80040EAC10020600DE0DA
:100CA000C8F80090FFF7A8FD064604E0FFF7A4FD92
:100CB000801B02281FD820688007F7D428780007F7
:100CC00022D5724E744869696C3671B10121016098
:100CD000FFF792FD074604E0FFF78EFDC01B0228D8
:100CE00009D830688007F7D50EE0C0F80090FFF70C
:100CF00083FD074605E083E0FFF77EFDC01B022869
:100D00007ED830688007F7D42878400768D5DFF8A8
:100D10007CA100270AF1380ADAF80000C0000BD4E1
:100D2000DAF8001041F08051CAF80010DAF800003B
:100D3000012700F080500090584E3068C00510D454
:100D4000306840F480703060FFF756FD009005E099
:100D5000FFF752FD0099401A022851D83068C005AB
:100D6000F6D54A4EA868683601280FD005283068A5
:100D700010D020F001003060306820F004003060B6
:100D8000A868B8B1FFF738FD00900FE0306840F078
:100D90000100F4E740F004003060F7E7FFF72CFDB6
:100DA0000099411A41F28830814264D83068800746
:100DB000F4D50EE0FFF720FD009007E0FFF71CFDE3
:100DC0000099411A41F28830814254D83068800736
:100DD000F4D42FB1DAF8001021F08051CAF80010D5
:100DE000A869C0B3DBF80010C1F3810102294AD021
:100DF0000228484607D0C8F86000FFF7FDFC00E075
:100E000039E005463AE04746C8F86000FFF7F4FCD1
:100E1000064604E0FFF7F0FC801B02282BD8206870
:100E20008001F7D4D5E907010843A96A1C4A49089B
:100E300002EB01416A6A41EA8211084395F82C10DD
:100E400040EA01611148001F016001203866FFF788
:100E5000D3FC054605E014E0FFF7CEFC401B02285A
:100E600009D820688001F7D50BE000BFFFF7C4FC6C
:100E7000401B022802D90320BDE8F88F20688001BA
:100E8000F4D40020F8E70120F6E70000083802401B
:100E90000038024000004742800E47420070004088
:100EA0000000FFFF10B5401EB0F1807F01D301208C
:100EB00010BD4FF0E02460610F21601700F0E6F9EB
:100EC0000020A06107202061002010BD70470000B5
:100ED00070B5026804461068D168536910F00F0FAE
:100EE00050D003F0010501F4907635435DD0C20780
:100EF00005D0CA0503D5E26B42F00102E263420766
:100F000005D5DA0703D0E26B42F00202E263820702
:100F100005D5DA0703D0E26B42F00402E263020770
:100F200005D5DA0703D0E26B42F00802E263E26B18
:100F3000002A33D0800604D5880602D5204600F06A
:100F40003FFA20684069E16BC0F38010090700D4C4
:100F500028B3204600F026FA2068416949061AD5D0
:100F6000416921F040014161606BA0B11B490165FD
:100F7000606BFFF7F3F9002810D0606B016DBDE8DE
:100F800070400847830610D58B060ED52046BDE875
:100F9000704000F015BA2046FFF798FF70BD20465C
:100FA000FFF794FF0020E06370BD030606D50B0633
:100FB00004D52046BDE8704000F09EBB4006F3D546
:100FC0004806F1D5D168204621F04001D1602021AA
:100FD00084F8391000F0D2F870BD000095130008B5
:100FE00070B5040004D094F83900002510B106E073
:100FF000012070BD84F83850204600F023F82420EA
:1010000084F839002068C16821F40051C16020468D
:1010100000F01CFA2068016921F490410161206808
:10102000416921F02A0141612068C16841F4005101
:10103000C160E563202084F8390084F83A0000207C
:1010400070BD000070B586B0064614216846FFF7F3
:1010500001F924493068884241D1234800250168BC
:1010600041F400310160006800F4003005901E4832
:101070001038016841F0080101600068694600F01D
:10108000080005906020009002200190012002904D
:1010900003200390072004901448FFF7BDFA154C75
:1010A000134820604FF0006060604020C4E90205F2
:1010B0000001C4E90405A561E56125622046656279
:1010C000FFF72EFA08B1FFF748F934630022114602
:1010D0002620A663FFF704FC2620FFF7F5FB06B0E9
:1010E00070BD00000044004040380240000C024047
:1010F000A0600240C800002090F83A30202B1DD19B
:10110000D1B1CAB190F83830012B17D081628285F5
:10111000C2850021C163222280F83A2080F838106D
:1011200001684A6942F001024A610068C16841F4FD
:101130009071C16000207047012070470220704705
:101140000B4910B5A1F1640000F046FB4FF480415B
:101150000848FFF747FB064864216438FFF77AF830
:1011600003496422BDE8104064390348FFF7C4BF57
:101170007400002000140240880000207047FEE741
:10118000094808B5016841F40011016000680022B7
:1011900000F40010009011461120FFF7A1FBBDE8FC
:1011A00008401120FFF790BB303802402DE9F04194
:1011B00086B014216846FFF74DF8224800240168E4
:1011C00041F008010160016801F008010591016822
:1011D00041F080010160016801F080010591016822
:1011E00041F010010160016801F0100105910168F2
:1011F00041F0200101600068012200F02000124F40
:10120000D502059029463846FFF7F0FA0122DFF8AB
:101210003C80960331464046FFF7E8FA00950125E9
:10122000CDE90154694638460394FFF7F5F9009675
:10123000CDE90154694640460394FFF7EDF906B045
:10124000BDE8F08130380240001002400014024036
:101250000C4810B50A4901604FF4E13141600021AA
:1012600081600C22C160C0E904128161C161FFF795
:10127000B7FE002803D0BDE81040FFF76EB810BDE0
:101280000044004088000020FEE770470907090E6F
:10129000002806DA00F00F0000F1E02080F8141DAD
:1012A000704700F1E02080F80014704770477047E5
:1012B0007047FFF7A7BA000030B593B030216846F9
:1012C000FEF7C8FF14210CA8FEF7C4FF1A4800253A
:1012D000016841F080510160006800F08050119079
:1012E0001648016841F4404101600068022400F49E
:1012F0004040119001200090000401908001CDE950
:10130000064006200890B420CDE9090404200B9083
:101310006846FFF739FCFFF715FB0CA90F2081E8A1
:1013200031004FF4A0500F90E002109005210CA85E
:10133000FFF740FB13B030BD403802400070004062
:101340001048016841F4700101600F48016841F0E4
:10135000010101600C4A00210832116002680B4B48
:101360001A400260031D0A4A1A60026822F48022B1
:10137000026005480C300160024958068039086057
:101380007047000088ED00E000380240FFFFF6FEE5
:101390001030002410B5806B0021C185C184FFF797
:1013A00095FD10BD0168CA6822F49072CA60016898
:1013B0004A6922F001024A61202180F83A10704700
:1013C00010B590F83A10222901D0022010BD816892
:1013D000B1F5805F11D00169002901681FD049680B
:1013E00001F07F03816A4A1C82620B70C18D491E25
:1013F0000904090CC18518D026E00269816A002A17
:101400000268526805D0D2B20A80816A491C8162A2
:10141000ECE7C2F308020A80816A891CF7E74A6890
:10142000816A4B1C83620A70E0E70168CA6822F493
:101430009072CA6001684A6922F001024A61202163
:1014400080F83A10FFF77CFE002010BD2DE9F04136
:1014500004460068016921F44052E16811430161CA
:101460002168C86849F20C6290432369A268E56963
:101470001A4363692B431A430243CA6021684869CF
:1014800020F44072A06910434861E1696425B1F518
:10149000004F9748974A21684FF032083FD0914259
:1014A00001D081427CD1FFF72DFB00EBC00101EBA5
:1014B000001061688900B0FBF1F6FFF723FB00EB39
:1014C000C00101EB001061688900B0FBF1F0B0FBD6
:1014D000F5F06FF01801484306EB800108EB0110AE
:1014E000B0FBF5F000F0F006FFF70CFB00EBC001DD
:1014F00001EB001061688900B0FBF1F0B0FBF5F082
:1015000006EB0016FFF7FEFA00EBC00101EB00103E
:1015100061688900B0FBF1F7FFF7F4FAD2E091427D
:1015200001D081423DD1FFF7EDFA00EBC00101EBA4
:10153000001061684900B0FBF1F0B0FBF5F0060166
:10154000FFF7E0FA00EBC00101EB00106168490011
:10155000B0FBF1F7FFF7D6FA00EBC00101EB00108A
:1015600061684900B0FBF1F0B0FBF5F06FF01801D5
:10157000484307EB800108EBC100B0FBF5F000F039
:10158000F80006EB4006FFF7BDFA00EBC00101EBE7
:10159000001061684900B0FBF1F7FFF7B3FA3CE0D7
:1015A00055E0FFF79FFA00EBC00101EB0010616806
:1015B0004900B0FBF1F0B0FBF5F00601FFF792FA3D
:1015C00000EBC00101EB001061684900B0FBF1F7CE
:1015D000FFF788FA00EBC00101EB001061684900D9
:1015E000B0FBF1F0B0FBF5F06FF01801484307EBEA
:1015F000800108EBC100B0FBF5F000F0F80006EB4D
:101600004006FFF76FFA00EBC00101EB00106168C4
:101610004900B0FBF1F7FFF765FA00EBC00101EB01
:10162000001061684900B0FBF1F0B0FBF5F06FF01D
:101630001801484307EB800108EBC100B0FBF5F04F
:1016400000F00700216830448860BDE8F081FFF7B2
:1016500049FA00EBC00101EB001061688900B0FBA2
:10166000F1F6FFF73FFA00EBC00101EB00106168F3
:101670008900B0FBF1F0B0FBF5F06FF018014843C2
:1016800006EB800108EB0110B0FBF5F000F0F0066E
:10169000FFF728FA00EBC00101EB00106168890038
:1016A000B0FBF1F0B0FBF5F006EB0016FFF71AFA0D
:1016B00000EBC00101EB001061688900B0FBF1F79D
:1016C000FFF710FA00EBC00101EB00106168890020
:1016D000B0FBF1F0B0FBF5F06FF01801484307EBF9
:1016E000800108EB0110B0FBF5F000F00F00A9E756
:1016F000001401400010014090F83910212901D058
:10170000022070478168B1F5805F016A0BD04A1CE6
:101710000262026809785160C18C491E0904090CF3
:10172000C1840ED017E009880268C1F30801516036
:1017300001690029016A02D0491C0162ECE7891C99
:10174000FBE70168CA6822F08002CA600068C168CD
:1017500041F04001C1600020704700000148FFF7E0
:10176000B7BB000088000020FEE702E008C8121F97
:1017700008C1002AFAD170477047002001E001C17A
:10178000121F002AFBD17047014600200A5CA52ADF
:1017900003D0401CC0B26428F8D3642801D14FF0B4
:1017A000FF307047FFF736F8FFF786FDFFF7FEFCC6
:1017B000FFF7E6FCFFF74CFD642205490548FFF7FB
:1017C0009BFC4FF4FA742046FEF714FFFBE7000081
:1017D000100000208800002070B50B460546FFF77A
:1017E000D3FF4FF0FF34002801DA204670BD2A18DD
:1017F0009178557801EB052189B2198055782844F4
:10180000642805DB0122D1020B48FEF7EFFFECE76D
:10181000D07898701079D87090795479D21D00EBF7
:101820000420988019815018DA604078515C00EBF0
:1018300001201882002070BD001002400006101622
:101840000006101600000000000000000102030462
:101850000607080900000000010203047C180008C4
:1018600000000020100000006A1700088C18000813
:1018700010000020180500007A1700080100000081
:0C18800010000000000000000024F40034
:04000005080001AD41
:00000001FF
