:020000040800F2
:10000000C0050020C1010008F3120008E711000834
:10001000F1120008F1020008D117000800000000EA
:10002000000000000000000000000000191300089C
:100030007D03000800000000151300081B130008D2
:10004000DB010008DB010008DB010008DB01000820
:10005000DB01000817130008DB010008DB010008C2
:10006000DB010008DB010008DB010008DB01000800
:10007000DB010008DB010008DB010008DB010008F0
:10008000DB010008F5020008DB010008DB010008C5
:10009000DB010008DB010008DB010008DB010008D0
:1000A000DB010008DB010008DB010008DB010008C0
:1000B000DB010008DB010008DB010008DB010008B0
:1000C000DB010008DB010008DB010008DB010008A0
:1000D000DB010008DB010008C5170008DB01000890
:1000E000DB010008DB010008DB010008DB01000880
:1000F000DB010008DB010008DB010008DB01000870
:10010000DB010008DB010008DB010008DB0100085F
:10011000DB010008DB010008DB010008DB0100084F
:10012000DB010008DB010008DB010008DB0100083F
:10013000DB010008DB010008DB010008DB0100082F
:10014000DB010008DB010008DB010008DB0100081F
:10015000DB010008DB010008DB010008DB0100080F
:10016000DB010008DB010008DB010008DB010008FF
:10017000DB010008DB010008DB01000800000000D3
:10018000DB010008DB010008DB010008DB010008DF
:10019000DB010008DB010008DB010008DB010008CF
:1001A0000000000000000000DB010008DFF80CD0B8
:1001B00000F08CF80048004711190008C005002025
:1001C0000648804706480047FEE7FEE7FEE7FEE7F1
:1001D000FEE7FEE7FEE7FEE7FEE7FEE7A9130008FD
:1001E000AD0100082DE9F05F0546002092469B46D0
:1001F00088460646814640241BE02846414647463D
:10020000224600F053F853465A46C01A914110D383
:1002100011461846224600F03AF82D1A67EB0108FD
:100220004F4622460120002100F031F817EB00096B
:100230004E41201EA4F10104DFDC484631462A4627
:100240004346BDE8F09F40EA01039B0703D009E065
:1002500008C9121F08C0042AFAD203E011F8013BB2
:1002600000F8013B521EF9D27047D2B201E000F80B
:10027000012B491EFBD270470022F6E710B513464A
:100280000A4604461946FFF7F0FF204610BD202A13
:1002900004DB203A00FA02F1002070479140C2F1DD
:1002A000200320FA03F3194390407047202A04DB0F
:1002B000203A21FA02F00021704721FA02F3D040DF
:1002C000C2F120029140084319467047064C074D81
:1002D00006E0E06840F0010394E807009847103416
:1002E000AC42F6D3FFF766FFCC1C0008EC1C0008FC
:1002F000FEE70000014800F079B80000540000203B
:1003000001681823CAB2103AB2FBF3F2054B6FF33F
:100310000901032A9B5CC36500D9091D8165084654
:1003200070470000AC1C000810B5014600208B6926
:100330008A6A4FF0C07453B1B3F5005F15D072B143
:10034000012A0CD0022A0AD0032A09D104E01AB1EA
:10035000012A06D0022A03D1C96AC90100D50120A9
:1003600010BDC96AA142FAD010BD002AF7D0012AF7
:10037000F2D0022AF3D0032AF3D010BD70477047A1
:1003800010B558B1084C491E0BD310F8013B53402F
:10039000DBB234F8133083EA1222F4E74FF6FF7031
:1003A00010BD104610BD0000AC1A000810B5054C79
:1003B00004E000BF10F8013B5340E25C491EF9D253
:1003C000104610BDAC19000890F83510022903D072
:1003D0008021416501207047052180F835100068B3
:1003E000016821F001010160002070472DE9F84308
:1003F00004464FF00009CDF8009063484FF41651C1
:10040000A56D0068B0FBF1F72E6894F85C10082029
:1004100000FA01F131420FD021680A6852070BD56A
:100420000A6822F004020A6094F85C108840A86010
:10043000606D40F00100606594F85C104FF00108B9
:1004400008FA01F0304208D021684969090604D54C
:10045000A860606D40F00200606594F85C100420B4
:100460008840304208D021680968890704D5A8600F
:10047000606D40F00400606594F85C1010208840C6
:10048000304218D021680968090714D5A86020688F
:100490000168490304D50068000308D5A16C07E092
:1004A0000168C90503D4016821F008010160216CCD
:1004B00009B12046884794F85C10202088403042DB
:1004C00031D021680968C9062DD5A86094F8350097
:1004D00005282068016806D0490347D50068000355
:1004E0001DD4616C1CE021F0160101602068416997
:1004F00021F080014161206C08B9A06C20B1206816
:10050000016821F00801016094F85C103F208840E8
:10051000A86084F8349084F83580216D1FE0E16B89
:1005200009B120468847606D00282BD0606DC00758
:1005300014D0052084F835002068016821F00101FD
:1005400001600098401C0090B84203D82068006801
:10055000C007F6D184F8349084F83580E16C002926
:1005600010D001B02046BDE8F04308470168C90536
:10057000D5D4016821F01001016084F8349084F82A
:100580003580CCE7BDE8F883100000202DE9F0416C
:10059000044600F055F906465CB1002584F8345055
:1005A000022084F835002068016821F00101016013
:1005B0000DE00120BDE8F08100F042F9801B052824
:1005C00005D920206065032084F83500F2E7206813
:1005D0000068C007F0D12268116820480140D4E9C2
:1005E00001031843D4E903363343184363691843BE
:1005F000A3691843E3691843236A18430843616AEF
:10060000042903D1D4E90B1319430843106020686F
:100610004069666A20F0070130460E43012704282E
:100620000CD1A06A0643E06A40B12046FFF77CFE89
:1006300020B14020606584F83570BAE720684661D3
:100640002046FFF75DFE94F85C203F2191408160D9
:10065000656584F835700020ACE700003F8010F03D
:100660002DE9F84FDFF890B100224FF001084FF06C
:10067000030A4FF00F090BF1040E00BF0B6808FAD4
:1006800002F42340A3426ED14D68022D01D0122DF9
:100690000ED1D50800EB850CDCF820505607F70E7C
:1006A00009FA07F6B5430E69BE402E43CCF8206028
:1006B000066855000F790AFA05FC07F0030726EAD9
:1006C0000C06AF40374307604E68012E05D0022E5E
:1006D00003D0112E01D0122E0ED18768CE6827EAE2
:1006E0000C07AE403E4386604668A6430C79C4F3CF
:1006F0000014944034434460C4688E6824EA0C04B7
:10070000AE402643C6604C68E4006FD53B4C25687C
:1007100045F480452560246822F0030504F48044F4
:100720000094374C2E19D6F8084895072F0F09FA70
:1007300007F5AC43334DA84201D100252EE0324DE0
:10074000A84201D1012529E0304DA84201D102255E
:1007500024E02F4DA84201D103251FE02D4DA842D2
:1007600002D104251AE041E02B4DA84201D1052514
:1007700014E02A4DA84201D106250FE0284DA842D9
:1007800001D107250AE0274DA84201D1082505E03F
:10079000254DA84201D1092500E00A25BD40254389
:1007A000C6F80858DBF800405D464E689C43F603E7
:1007B00000D51C432C60DEF8004075464E689C4313
:1007C000B60300D51C432C600B4D08352C684E68D1
:1007D0009C43F60200D51C432C60074D0C352C6859
:1007E0004E689C43B60200D51C432C60521C102A54
:1007F000FFF444AFBDE8F88F003C014044380240AC
:1008000000300140000002400004024000080240A5
:10081000000C024000100240001402400018024088
:10082000001C0240002002400024024042694A406D
:10083000426170470AB1816170470904FBE700001B
:100840000148806870470000040000200248816869
:100850000278114481607047040000200B4810B5F5
:10086000016841F400710160016841F48061016038
:10087000016841F480710160032000F075F80020E8
:1008800000F006F800F024F8002010BD003C024003
:1008900070B50D4D04464FF47A712878B1FBF0F035
:1008A0000A490968B1FBF0F000F020FB48B9102CB0
:1008B00007D200222146501E00F036F800206C605E
:1008C00070BD012070BD0000040000201000002059
:1008D0000E4808B5016841F480410160006800F4E9
:1008E000804000900948001F016841F0805101607C
:1008F0000068002200F0805000901146052000F0B2
:1009000013F8BDE80840052000F002B84438024062
:1009100000F01F02012191404009800000F1E02019
:10092000C0F8001170470000F0B40E4B1B680C4675
:10093000C3F30223C3F10705042D00D90425191DB3
:10094000072901D2002300E0DB1E012606FA05F18B
:10095000491E214099409E40761E16403143F0BC0E
:1009600000F0C8BC0CED00E0064900F00702086882
:100970004FF6FF03184040EA0220034A1043086084
:10098000704700000CED00E00000FA052DE9F84387
:100990001748016841F0805101600068154F00F070
:1009A0008050012600903E64FFF74AFF05464FF451
:1009B0007A78114C05E000BFFFF742FF401B40452D
:1009C0000DD86068C003F7D57E64FFF739FF054690
:1009D000464607E0FFF734FF401BB04202D9032030
:1009E000BDE8F88360688003F4D50020F8E70000D4
:1009F0004038024000000E42007000402DE9F047F0
:100A00000E46050065D0DFF81481D8F80000F7B273
:100A100000F00F00B04207D288F80070D8F800004C
:100A200000F00F00B04254D128683D4C810712D528
:100A3000400703D5206840F4E05020602878000784
:100A400003D5206840F4604020602068A96820F049
:100A5000F000084320602878C0072DD0304968682E
:100A60000839012812D0022813D0032811D00968B0
:100A7000890700292DDA216821F003010143216053
:100A8000FFF7DEFE814641F2883A0EE009688903ED
:100A9000EFE709688901ECE7FFF7D2FEA0EB090157
:100AA000514502D90320BDE8F0872068696800F04D
:100AB0000C00B0EB810FEFD1D8F80010404601F0E8
:100AC0000F01B14207D90770006800F00F00B04273
:100AD00001D00120E7E72878400705D52068E968BC
:100AE00020F4E050084320602878000706D52068ED
:100AF000296920F4604040EAC100206000F036F827
:100B00002168084AC1F30311515CC84006490860D6
:100B10000020FFF7BDFE0020C5E70000003C0240BA
:100B200008380240B41C00081000002004480549A1
:100B300000680968044AC1F38221515CC8407047CB
:100B40001000002008380240C41C00080448054971
:100B500000680968044AC1F34231515CC8407047DB
:100B60001000002008380240C41C0008154810B5C9
:100B7000006810F00C02144813D01449042A0FD056
:100B8000082A0ED10F4C241F2268236802F03F026E
:100B90005B0207D52068C0F38810A0FB010106E0C6
:100BA000084610BD2168C1F38811A1FB0001002394
:100BB000FFF718FB2168C1F30141491C4900B0FB54
:100BC000F1F010BD083802400024F400001BB7000B
:100BD0002DE9F84F050076D02878DFF8F8B2BE4C42
:100BE000C00749D0DBF800105846C1F38101012944
:100BF00008D00068C0F3810002280AD1201D0068D7
:100C0000400206D52068800336D568680028E2D007
:100C100032E06868B0F5803F10D0B0F5A02F2068B2
:100C200010D020F480302060206820F480202060E4
:100C30006868A0B1FFF704FE06460CE0206840F4A7
:100C40008030F4E740F480202060F7E7FFF7F8FDFC
:100C5000801B642873D820688003F7D50CE0FFF769
:100C6000EFFD064605E000BFFFF7EAFD801B6428A4
:100C7000F0D820688003F7D42878DFF860828007F6
:100C80004FF000093ED5DBF80010584611F00C0F6C
:100C900009D00068C0F3810002280BD18D48001FE5
:100CA0000068400206D42068800715D5E86801284E
:100CB00009D111E0E868B8B10120C8F80000FFF7D9
:100CC000BFFD064605E002E1FFF7BAFD801B0228E2
:100CD000C0D820688007F7D52068296920F0F8007F
:100CE00040EAC10020600DE0C8F80090FFF7A8FDC1
:100CF000064604E0FFF7A4FD801B02281FD82068E9
:100D00008007F7D42878000722D5724E74486969A5
:100D10006C3671B101210160FFF792FD074604E0D6
:100D2000FFF78EFDC01B022809D830688007F7D571
:100D30000EE0C0F80090FFF783FD074605E083E072
:100D4000FFF77EFDC01B02287ED830688007F7D4ED
:100D50002878400768D5DFF87CA100270AF1380A17
:100D6000DAF80000C0000BD4DAF8001041F080512E
:100D7000CAF80010DAF80000012700F08050009057
:100D8000584E3068C00510D4306840F48070306030
:100D9000FFF756FD009005E0FFF752FD0099401A5D
:100DA000022851D83068C005F6D54A4EA868683682
:100DB00001280FD00528306810D020F001003060E5
:100DC000306820F004003060A868B8B1FFF738FD43
:100DD00000900FE0306840F00100F4E740F00400BC
:100DE0003060F7E7FFF72CFD0099411A41F2883097
:100DF000814264D830688007F4D50EE0FFF720FD0B
:100E0000009007E0FFF71CFD0099411A41F288307D
:100E1000814254D830688007F4D42FB1DAF800103A
:100E200021F08051CAF80010A869C0B3DBF80010A7
:100E3000C1F3810102294AD00228484607D0C8F8E8
:100E40006000FFF7FDFC00E039E005463AE0474668
:100E5000C8F86000FFF7F4FC064604E0FFF7F0FC7A
:100E6000801B02282BD820688001F7D4D5E9070120
:100E70000843A96A1C4A490802EB01416A6A41EA2F
:100E80008211084395F82C1040EA01611148001FB7
:100E9000016001203866FFF7D3FC054605E014E049
:100EA000FFF7CEFC401B022809D820688001F7D547
:100EB0000BE000BFFFF7C4FC401B022802D903204F
:100EC000BDE8F88F20688001F4D40020F8E7012005
:100ED000F6E70000083802400038024000004742B0
:100EE000800E4742007000400000FFFF10B5401E1A
:100EF000B0F1807F01D3012010BD4FF0E02460618C
:100F00000F21601700F0F6F90020A0610720206192
:100F1000002010BD7047000070B5026804461068DC
:100F2000D168536910F00F0F50D003F0010501F4A0
:100F3000907635435DD0C20705D0CA0503D5E26B74
:100F400042F00102E263420705D5DA0703D0E26B03
:100F500042F00202E263820705D5DA0703D0E26BB2
:100F600042F00402E263020705D5DA0703D0E26B20
:100F700042F00802E263E26B002A33D0800604D517
:100F8000880602D5204600F04FFA20684069E16BE0
:100F9000C0F38010090700D428B3204600F036FAC9
:100FA0002068416949061AD5416921F04001416133
:100FB000606BA0B11B490165606BFFF705FA002863
:100FC00010D0606B016DBDE870400847830610D5F6
:100FD0008B060ED52046BDE8704000F025BA2046AD
:100FE000FFF798FF70BD2046FFF794FF0020E063F5
:100FF00070BD030606D50B0604D52046BDE870403B
:1010000000F0AEBB4006F3D54806F1D5D1682046C6
:1010100021F04001D160202184F8391000F0E2F87D
:1010200070BD0000FD13000870B5040004D094F8F2
:101030003900002510B106E0012070BD84F8385059
:10104000204600F023F8242084F839002068C16885
:1010500021F40051C160204600F02CFA206801699B
:1010600021F4904101612068416921F02A01416128
:101070002068C16841F40051C160E563202084F814
:10108000390084F83A00002070BD000070B586B0C9
:10109000064614216846FFF7EFF824493068884275
:1010A00041D123480025016841F400310160006806
:1010B00000F4003005901E481038016841F0080126
:1010C00001600068694600F008000590602000900B
:1010D0000220019001200290032003900720049039
:1010E0001448FFF7BDFA154C134820604FF000601C
:1010F00060604020C4E902050001C4E90405A5615F
:10110000E561256220466562FFF740FA08B1FFF706
:1011100036F93463002211462620A663FFF704FC4B
:101120002620FFF7F5FB06B070BD0000004400402C
:1011300040380240000C0240A060024054000020F1
:1011400090F83A30202B1DD1D1B1CAB190F8383087
:10115000012B17D081628285C2850021C1632222C2
:1011600080F83A2080F8381001684A6942F001029C
:101170004A610068C16841F49071C1600020704705
:10118000012070470220704700B585B01049114812
:1011900000F0D2FB104800900E220D4901A8FFF785
:1011A00052F80DF1040C9CE80F0000F062FB4FF4C4
:1011B00080410A48FFF73AFB96210648FFF75CF8A2
:1011C00005B09622034906485DF804EBFFF7B8BF67
:1011D0004A010020B4000020580100200014024001
:1011E000140000207047FEE7094808B5016841F483
:1011F000001101600068002200F400100090114608
:101200001120FFF791FBBDE808401120FFF780BBDC
:10121000303802402DE9F04186B014216846FFF7CE
:101220002BF822480024016841F0080101600168A0
:1012300001F008010591016841F080010160016839
:1012400001F080010591016841F010010160016821
:1012500001F010010591016841F020010160006872
:10126000012200F02000124FD50205902946384691
:10127000FFF7E0FA0122DFF83C8096033146404652
:10128000FFF7D8FA00950125CDE9015469463846A3
:101290000394FFF7E5F90096CDE90154694640460D
:1012A0000394FFF7DDF906B0BDE8F0813038024065
:1012B00000100240001402400C4810B50A490160B9
:1012C0004FF4E1314160002181600C22C160C0E92E
:1012D00004128161C161FFF7A7FE002803D0BDE8B9
:1012E0001040FFF74CB810BD00440040140000202F
:1012F000FEE770470907090E002806DA00F00F0024
:1013000000F1E02080F8141D704700F1E02080F823
:1013100000147047704770477047FFF797BA000096
:1013200030B593B030216846FEF7A6FF14210CA813
:10133000FEF7A2FF1A480025016841F080510160C4
:10134000006800F0805011901648016841F4404157
:1013500001600068022400F44040119001200090D8
:10136000000401908001CDE9064006200890B420D9
:10137000CDE9090404200B906846FFF729FCFFF72C
:1013800005FB0CA90F2081E831004FF4A0500F900D
:10139000E002109005210CA8FFF730FB13B030BD20
:1013A00040380240007000401048016841F470016C
:1013B00001600F48016841F0010101600C4A002101
:1013C0000832116002680B4B1A400260031D0A4A82
:1013D0001A60026822F48022026005480C30016025
:1013E00002495806803908607047000088ED00E027
:1013F00000380240FFFFF6FE1030002410B5806B6D
:101400000021C185C184FFF785FD10BD0168CA6850
:1014100022F49072CA6001684A6922F001024A61AE
:10142000202180F83A10704710B590F83A10222920
:1014300001D0022010BD8168B1F5805F11D0016933
:10144000002901681FD0496801F07F03816A4A1CA6
:1014500082620B70C18D491E0904090CC18518D028
:1014600026E00269816A002A0268526805D0D2B279
:101470000A80816A491C8162ECE7C2F308020A8093
:10148000816A891CF7E74A68816A4B1C83620A708B
:10149000E0E70168CA6822F49072CA6001684A698C
:1014A00022F001024A61202180F83A10FFF76CFE19
:1014B000002010BD2DE9F04104460068016921F4C7
:1014C0004052E168114301612168C86849F20C6229
:1014D00090432369A268E5691A4363692B431A4361
:1014E0000243CA602168486920F44072A069104331
:1014F0004861E1696425B1F5004F9748974A216832
:101500004FF032083FD0914201D081427CD1FFF7A9
:101510001DFB00EBC00101EB001061688900B0FB0E
:10152000F1F6FFF713FB00EBC00101EB001061685F
:101530008900B0FBF1F0B0FBF5F06FF01801484303
:1015400006EB800108EB0110B0FBF5F000F0F006AF
:10155000FFF7FCFA00EBC00101EB001061688900A5
:10156000B0FBF1F0B0FBF5F006EB0016FFF7EEFA7A
:1015700000EBC00101EB001061688900B0FBF1F7DE
:10158000FFF7E4FAD2E0914201D081423DD1FFF76A
:10159000DDFA00EBC00101EB001061684900B0FB0F
:1015A000F1F0B0FBF5F00601FFF7D0FA00EBC00157
:1015B00001EB001061684900B0FBF1F7FFF7C6FAD4
:1015C00000EBC00101EB001061684900B0FBF1F0D5
:1015D000B0FBF5F06FF01801484307EB800108EB12
:1015E000C100B0FBF5F000F0F80006EB4006FFF795
:1015F000ADFA00EBC00101EB001061684900B0FBDF
:10160000F1F7FFF7A3FA3CE055E0FFF78FFA00EBA4
:10161000C00101EB001061684900B0FBF1F0B0FBC4
:10162000F5F00601FFF782FA00EBC00101EB0010B4
:1016300061684900B0FBF1F7FFF778FA00EBC001F1
:1016400001EB001061684900B0FBF1F0B0FBF5F070
:101650006FF01801484307EB800108EBC100B0FBB5
:10166000F5F000F0F80006EB4006FFF75FFA00EB3C
:10167000C00101EB001061684900B0FBF1F7FFF712
:1016800055FA00EBC00101EB001061684900B0FBA6
:10169000F1F0B0FBF5F06FF01801484307EB800163
:1016A00008EBC100B0FBF5F000F007002168304402
:1016B0008860BDE8F081FFF739FA00EBC00101EB6B
:1016C000001061688900B0FBF1F6FFF72FFA00EB1C
:1016D000C00101EB001061688900B0FBF1F0B0FBC4
:1016E000F5F06FF01801484306EB800108EB01109C
:1016F000B0FBF5F000F0F006FFF718FA00EBC001C0
:1017000001EB001061688900B0FBF1F0B0FBF5F06F
:1017100006EB0016FFF70AFA00EBC00101EB001020
:1017200061688900B0FBF1F7FFF700FA00EBC00138
:1017300001EB001061688900B0FBF1F0B0FBF5F03F
:101740006FF01801484307EB800108EB0110B0FB74
:10175000F5F000F00F00A9E700140140001001406F
:1017600090F83910212901D0022070478168B1F525
:10177000805F016A0BD04A1C0262026809785160DE
:10178000C18C491E0904090CC1840ED017E00988D8
:101790000268C1F30801516001690029016A02D0A1
:1017A000491C0162ECE7891CFBE70168CA6822F06A
:1017B0008002CA600068C16841F04001C160002039
:1017C000704700000148FFF7A7BB0000140000208D
:1017D000FEE7000030B50C46050014D0022C12D9EB
:1017E0000A48A11E02882846FEF7CAFD2919C2B27E
:1017F00011F8023C9A4206D111F8011CB1EB102FEE
:1018000001D1012030BD002030BD000000000020CB
:1018100030B50C4605000CD0022C0AD9FF22611EFF
:10182000FEF7C4FD291911F8011C814201D10120E4
:1018300030BD002030BD02E008C8121F08C1002AD8
:10184000FAD170477047002001E001C1121F002A41
:10185000FBD170470146002001E0401CC0B20A5C89
:10186000A52A01D09628F8D3962801D14FF0FF3051
:10187000704738B58DB2049CB5F5817F0BD0A5F5C6
:101880000075023D02D04FF0FF3038BD3C3400946B
:1018900000F007F803E02434009400F028F800205A
:1018A00038BD090C00980E2902D04FF0FF30704768
:1018B000118849BA0180D178937801EB03214180E6
:1018C0001179D2F8053041EA032100EE101AB8EE82
:1018D000C00A10EE101A4160118949BA018151897C
:1018E00049BA4181918949BA818100207047090C28
:1018F0000098042902D04FF0FF3070471178017032
:101900005178417091788170D178C1700020704712
:10191000FEF7A4FFFFF704FDFFF77CFCFFF764FC74
:10192000FFF7CAFC962202490248FFF709FCFEE7CE
:10193000B4000020140000202DE9F0410D460346BC
:10194000FFF788FF06004FF0FF3715D498190446BB
:101950000521FFF75DFF78B16178298020460931C4
:10196000FFF738FF58B16078304496280ADB01222F
:10197000D1020D48FEF75EFF3846BDE8F081002039
:101980002880F9E7E078A8702079E870B4F80500BD
:10199000E41D40BAA8802888E8802044AC60008814
:1019A00040BAA8810020E8E700100240005EBCE2D7
:1019B000613FDD83C29C7E20A3FD1F419DC3217F2B
:1019C000FCA2401E5F01E3BD3E6082DC237D9FC11F
:1019D000421CFEA0E1BF5D0380DE3C62BEE0025C13
:1019E000DF81633D7C22C09E1D43A1FF4618FAA4FF
:1019F00027799BC584DA3866E5BB5907DB856739EB
:101A0000BAE406581947A5FB7826C49A653BD987DE
:101A1000045AB8E6A7F91B45C6987A24F8A6441AD2
:101A200099C7257B3A6486D85B05E7B98CD2306EBE
:101A3000EDB3510F4E10F2AC2F7193CD114FADF3AA
:101A4000702ECC92D38D6F31B2EC0E50AFF1134D9E
:101A5000CE90722C6D33D18F0C52B0EE326C8ED092
:101A6000530DEFB1F0AE4C1291CF2D73CA9476287E
:101A7000ABF517490856B4EA6937D58B5709EBB56A
:101A800036688AD495CB2977F4AA4816E9B7550B5E
:101A900088D6346A2B7597C94A14F6A8742AC89652
:101AA000154BA9F7B6E80A54D7896B3500008911A0
:101AB00012239B322446AD573665BF74488CC19DB6
:101AC0005AAFD3BE6CCAE5DB7EE9F7F88110080196
:101AD00093331A22A5562C47B7753E64C99C408D96
:101AE000DBBF52AEEDDA64CBFFF976E802218B3032
:101AF000100299132667AF763444BD554AADC3BC76
:101B0000588ED19F6EEBE7FA7CC8F5D983310A2055
:101B100091121803A7772E66B5543C45CBBD42AC55
:101B2000D99E508FEFFB66EAFDD874C904428D53ED
:101B300016619F702004A9153227BB364CCEC5DF35
:101B40005EEDD7FC6888E1997AABF3BA85520C4315
:101B500097711E60A1142805B3373A26CDDE44CF15
:101B6000DFFD56ECE9986089FBBB72AA06638F72B1
:101B700014409D512225AB343006B9174EEFC7FEF5
:101B80005CCCD5DD6AA9E3B8788AF19B87730E62D5
:101B900095501C41A3352A24B1163807CFFF46EED5
:101BA000DDDC54CDEBB962A8F99A708B088481957D
:101BB0001AA793B62CC2A5D33EE1B7F04008C919C5
:101BC000522BDB3A644EED5F766DFF7C8994008585
:101BD0009BB712A6ADD224C3BFF136E0C1184809A5
:101BE000D33B5A2AE55E6C4FF77D7E6C0AA583B421
:101BF000188691972EE3A7F23CC0B5D14229CB3885
:101C0000500AD91B666FEF7E744CFD5D8BB502A444
:101C100099961087AFF326E2BDD034C1C3394A2864
:101C2000D11A580BE77F6E6EF55C7C4D0CC685D7DC
:101C30001EE597F42880A1913AA3B3B2444ACD5B44
:101C40005669DF78600CE91D722FFB3E8DD604C704
:101C50009FF516E4A9902081BBB332A2C55A4C4B24
:101C6000D7795E68E11C680DF33F7A2E0EE787F6A0
:101C70001CC495D52AA1A3B03882B193466BCF7A04
:101C80005448DD59622DEB3C700EF91F8FF706E6C4
:101C90009DD414C5ABB122A0B9923083C77B4E6AE4
:101CA000D5585C49E33D6A2CF11E780F00061016EA
:101CB00000061016000000000000000001020304EE
:101CC000060708090000000001020304EC1C0008DC
:101CD000000000201400000036180008001D000855
:101CE00014000020AC05000046180008FFFF0000AB
:101CF0000100000010000000000000000024F400BB
:04000005080001AD41
:00000001FF
